:100000000C9494030C94DB030C94DB030C94DB033F
:100010000C94DB030C94DB030C94DB030C94DB03E8
:100020000C94DB030C94DB030C94DB030C943D2257
:100030000C94EE220C94271D0C94DB030C94DB0330
:100040000C94DB030C94DB030C94DB030C947E1DFB
:100050000C94DB030C94DB030C94DB030C94DB03A8
:100060000C94DB030C94DB030C94DB030C94DB0398
:100070000C94DB03414D2558253032582530325839
:100080005A0A00415125585A0A00414B253032582E
:100090002530325825755A0A0041493025585A0AE8
:1000A000004143305A0A004143315A0A00414C256D
:1000B000585A0A0029004C0014001A0005001000CC
:1000C00018001C002A0007510858055807000F00A7
:1000D00015000B000C00120005580658E3002B0019
:1000E0001700090016001100040008002800E300B2
:1000F000E20004580E0013000D000A00165E175EA1
:100100000458E200E00002581D001B000600190020
:10011000195E1A5E0258E0000158E10000002C0050
:10012000000003580F5F0000E100390001000100EA
:10013000115E085F095F055F045FFE5D010001005D
:1001400001000100075E085E095E1B5EE75DE85D79
:100150000100010001000100045E055E065E075F0C
:10016000E95DEA5D0100010001000100015E025E3F
:10017000035E105EEB5DEC5D01000100010001001B
:100180000A5E195E1A5E105F185F195F01000100B8
:100190000100010000000100000001002800000033
:1001A0000100010001000100015F025F035F055FC4
:1001B000045F065F0100010001000100115F125F92
:1001C00000001B5E185E175F0100010001000100C6
:1001D000185F195F0000075F3100115E0100010028
:1001E00001000100085F095F0000105E155F165FE7
:1001F0000100010001000100125E135E135F105F39
:10020000005F1A5F01000100010001000000010011
:1002100000000100010000000100010001000100D8
:1002200000000000000000000000000001000100CC
:10023000010001000000000000000000ED000000CF
:100240000100010001000100000000000000EF00BB
:10025000EE00F00001000100010001000000520664
:100260000000F100F900F2000100010001000100AE
:10027000500651064F060000FA0000000100010080
:10028000010001000000000000000100000000006B
:1002900001000100010001004900460048004E0035
:1002A00000004B00010001000100010000005202AB
:1002B00000000000520000000100010001000100E8
:1002C000500251024F02500051004F000100010046
:1002D000010001004A004A024A014A0350014F014D
:1002E00001000100010001004D004D024D014D03D0
:1002F00050034F0301000100010001000000000055
:1003000000000100000000000100010001000100E8
:100310003A003B003C003D003E003F000100010070
:10032000010001004000410042004300440045003C
:1003300001000100010001001E081F08200821081B
:1003400022082308010001000100010050084F08A5
:100350005208AA00A900A800010001000100010044
:10036000500A4F0A5108160A29034C0501000100E2
:10037000010001000000000000000100000000007A
:10038000010001007D5D7D5D7D5D7D5D7D5D7D5D4F
:100390007D5D7D5D7D5D7D5D7D5D7D5D7D5D7D5D8D
:1003A0007D5D7D5D7D5D7D5D7D5D01007D5D7D5D56
:1003B0007D5D7D5D7D5D7D5D7D5D7D5D7D5D7D5D6D
:1003C0007D5D7D5D7D5D7D5D7D5D7D5D7D5D7D5D5D
:1003D0007D5D7D5D7D5D7D5D7D5D7D5D7D5D7D5D4D
:1003E0007D5D7D5D7D5D7D5D7D5D7D5D00007D5D17
:1003F00000007D5D7D5D00007D5D7D5D0000000095
:1004000000000000000000000000000000000000EC
:1004100000000000000000000000000000000000DC
:1004200000000000805D00000000000000000000EF
:10043000000000000000805D7F5D00000000000003
:10044000000000000000000000007F5D7E5D0000F5
:1004500000000000000000000000000000007E5DC1
:100460000000815D000000000000000000000000AE
:10047000815D010001000000855D865D8B5D8E5D04
:100480008D5D0000005C010001000000875D885D5B
:100490008C5D00000000000000000100935D000082
:1004A000835D845D0000000000000000000000008B
:1004B00000000000895D8A5D00000000000000006F
:1004C00000000000000000008F5D905D0000000053
:1004D000000000000000000000000000000000001C
:1004E00000000000000000000000000044454255EC
:1004F000473A2064697361626C65642E0A00444562
:100500004255473A20656E61626C65642E0A004F61
:100510006E6573686F743A206163746976653A201A
:1005200025640A000A0025303258006B6579626F35
:100530006172645F7365745F6C65643A20000A00E1
:100540002530313662003A200025303258000A72D8
:100550002F63203031323334353637383941424316
:100560004445460A00290A002575002F002575001C
:100570005D2800256400200025640020002564001B
:1005800020002564007C0025303258006D6F7573A3
:10059000656B6579205B62746E7C782079207620AB
:1005A000685D287265702F61636C293A205B000AD0
:1005B000002530325820006B6579626F6172645F8C
:1005C0007265706F72743A20005B735D004B6579E1
:1005D000626F6172642073746172742E0A005B57DB
:1005E0005D005B535D005B525D00160343006800D5
:1005F0006F006300740061006E0067006C006500AE
:10060000000008034D0030005000000004030904FE
:1006100009025B00030100A0FA09040000010301C4
:100620000100092111010001224000070581030892
:10063000000A090401000103000000092111010062
:10064000012249000705820320000A090402000272
:100650000300000009211101000122220007058387
:10066000032000010705030320000112010002001E
:100670000000080DF005000100010200010631FF35
:100680000974A1010975150026FF009520750881E0
:10069000020976150026FF00952075089102C00515
:1006A000010902A10185020901A100050919012919
:1006B0000815002501950875018102050109300919
:1006C000311581257F950275088106093815812528
:1006D0007F950175088106050C0A38021581257F72
:1006E000950175088106C0C005010906A10105072D
:1006F00019E029E71500250195087501810295018A
:10070000750881010507190029FF150026FF0095CE
:1007100006750881000508190129059505750191DF
:1007200002950175039101C011241FBECFEFD4E0E3
:10073000DEBFCDBF04B603FE27C080912702909193
:100740002802A0912902B0912A028730904BA7403D
:10075000B04BD1F410922702109228021092290275
:1007600010922A0214BE84B7877F84BF0FB6F89414
:10077000A89580916000886180936000109260006D
:100780000FBEE0E0F8E3099511E0A0E0B1E0E0ED94
:10079000FAE402C005900D92AA33B107D9F722E01E
:1007A000AAE3B1E001C01D92A732B207E1F70E94AF
:1007B000B1160C9442250C940000FF93EF93E09146
:1007C0003A01F0913B01309709F00995EF91FF91C3
:1007D0000895FC018591803011F0EFDFFBCF089583
:1007E000FF27E0E230E247FF0CC0419597FF09C0C8
:1007F000EDE26095709580959095611D711D811D4C
:10080000911D27FF02C0219530E350E2AA27660F11
:10081000771F881F991FAA1FA41710F0A41B6395A8
:100820005A95A9F7AA3008F0A95FA05DAF93F39598
:10083000611571058105910541F7ED3211F4EF93D2
:10084000F395F21718F43F93F395FBCF8F91B5DF33
:10085000FA95E1F70895E991F9918591803021F0B9
:10086000853219F0AADFF9CF089520E0E894559178
:100870005532C1F3503311F4689455915A3348F40A
:10088000505390F3220F022E220F220F200D250F1E
:10089000F4CF0EF4219589919991533619F353377A
:1008A00029F1533559F1BC0188279927E8945C3622
:1008B00021F48991999168945591543639F446EF11
:1008C0007EF077FF0DC08FEF9FEF0AC055374AE0EB
:1008D00039F0583540E121F0523642E009F00895F0
:1008E000FF93EF937DDFEF91FF91B7CFFF93EF93EE
:1008F000FC0181918030B9F360DFFBCFFF93EF9370
:1009000068DFF1CFDF93CF93CDB7DEB72596A3DFB6
:10091000CF91DF910895CF92DF92EF92FF926B011A
:100920007C010E944F0781508830D8F4E82FF0E016
:10093000ED5EFE4F8081082E000C990B9F938F93E4
:100940008DEA90E09F938F930E9482040F900F9006
:100950000F900F90C701B601FF90EF90DF90CF90FE
:10096000089590E080E0EACF81FF09C087EA90E037
:100970009F938F930E9482040F900F90089581EAB5
:1009800090E0F6CFE0914201F09143016091400187
:100990007091410140913E0150913F0120913C01F5
:1009A00030913D01CF01860F971F840F951F820F55
:1009B000931F82309105D4F43197D9F061307105DD
:1009C000D9F041305105D9F02130310511F484E0DE
:1009D00090E09F938F9389E990E09F938F930E947B
:1009E00082040F900F900F900F90089585E090E093
:1009F000F0CF81E090E0EDCF82E090E0EACF83E0BD
:100A000090E0E7CFEF92FF921F93CF93DF93EC013B
:100A10007B01FB0182811F928F9381811F928F93B3
:100A200080811F928F938AE890E09F938F930E941A
:100A30008204F70112818DB79EB708960FB6F8941D
:100A40009EBF0FBE8DBF1123D9F180818130C1F5CA
:100A50008181811135C080914201909143010197BC
:100A600091F08091400190914101019761F0809156
:100A70003E0190913F01019731F080913C019091AE
:100A80003D010197E9F480EE0E948B08109243012A
:100A90001092420182EE0E948B0810924101109246
:100AA000400183EE0E948B0810923F0110923E019C
:100AB00081EE0E948B0810923D0110923C0111C002
:100AC000C03ED10591F4809142019091430101977C
:100AD00009F0D6C080EE0E948B081092430110925C
:100AE00042010E94C20410E09AC0C23ED10579F4CE
:100AF0008091400190914101019709F0C1C082EEBF
:100B00000E948B081092410110924001EACFC33E2F
:100B1000D10571F480913E0190913F01019791F4CC
:100B200083EE0E948B0810923F0110923E01D9CFB4
:100B3000C13ED10549F480913C0190913D0101975E
:100B400009F4B6CF11E06BC0CE018E579D450497D6
:100B5000B8F5CE379DE5D907B9F480EE0E941308A9
:100B600081E090E09093430180934201C138DD45DC
:100B700009F0B7CF81EE0E948B0881E090E090935E
:100B80003D0180933C01ADCFCF37EDE5DE0751F459
:100B900082EE0E94130881E090E0909341018093DF
:100BA00040019FCFC038FDE5DF0701F783EE0E94CB
:100BB000130881E090E090933F0180933E0191CF34
:100BC000C33E9EE5D90790F1C25E1123C1F0E091CA
:100BD0000001F09101018081827221F08C2F0E942E
:100BE000130881CF81EE0E9413088C2F0E941308F6
:100BF00081EE90E0909345018093440174CF8C2F57
:100C00000E948B088091440190914501009709F45E
:100C10006ACF0E948B081092450110924401812FE7
:100C2000DF91CF911F91FF90EF900895C43EEDE5C5
:100C3000DE0730F1C35E1123B1F0E0910001F091C5
:100C40000101808181FF04C081EE0E948B08CDCF1D
:100C500085FFC4CF85EE0E948B088C2F0E9413085D
:100C600085EE90E0C7CF8C2F0E948B0880914401C5
:100C700090914501009709F436CF0E941308CBCF1D
:100C8000CE0183589D45419790F4112309F45ACF22
:100C9000C356DD45DF93CF9383E890E09F938F9316
:100CA0000E9482040F900F900F900F90B8CFCD3715
:100CB000DD4509F047CF112309F444CFF701D18175
:100CC000C08160916F01709170018091710190916C
:100CD00072010E944F071F92DF931F92CF931F92C2
:100CE0008F9384E790E09F938F930E9482048DB747
:100CF0009EB708960FB6F8949EBF0FBE8DBFF3CE79
:100D000081E008950C94020508950C9484061F93C5
:100D1000CF93DF9300D000D00F92CDB7DEB74983D9
:100D20005A836B833091460189819A8131111DC0AC
:100D30006623B9F02223A9F00E94000D182F682F16
:100D400089819A810E949D0C69817A81812F0F90FF
:100D50000F900F900F900F90DF91CF911F910C94F7
:100D6000DD130E94D40C182FEFCF0E94000D698173
:100D70007A81EDCFFC01262F408151816281738100
:100D800084810C94870681E00895CF93DF93EC0172
:100D900060E00E94BA06BE01DF91CF910C948506F7
:100DA0000E94ED140E94C7070C9412150C9415159F
:100DB00008950E94480B0E94D8062FEF84E39CE020
:100DC000215080409040E1F700C000000C94A21D2B
:100DD0000F931F93CF93DF938C0161E00E94BA06BB
:100DE000EC01B8010E9482068823C1F1B801CE014E
:100DF0000E94431A882391F1B801CE010E94951AEE
:100E0000882361F1B801CE010E94BF1B882331F114
:100E1000F8018281882361F0CF3DFCE5DF07B1F165
:100E200070F4C115ECE5DE07B9F0C130DC45E1F046
:100E3000C801DF91CF911F910F910C948006CC35A2
:100E40008DE5D80749F1CD35DC0719F1CB35DD4506
:100E500079F70E948B10ECCF0E94D90680E0DF91D9
:100E6000CF911F910F9108959091D101892F8E7F7D
:100E700090FF81608093D10180FF05C08EEF94E0E8
:100E80000E94E903EBCF8CEE94E0FACF0E94EC11C4
:100E9000E5CF0E948210CCCF0E948E10C9CFCF9296
:100EA000DF92EF92FF926C01EE24FF2420E0C11448
:100EB000D104E104F10419F0C701B60120E1C72E05
:100EC000D82EE92EFF24C114D104E104F10419F055
:100ED000285FC701B6016B017C0154E0F694E794EA
:100EE000D794C7945A95D1F7C114D104E104F10401
:100EF00019F02C5FC701B6016B017C0142E0F6944A
:100F0000E794D794C7944A95D1F7C114D104E1046A
:100F1000F10419F02E5FC701B60196958795779574
:100F20006795672B682B692B09F02F5F822FFF9045
:100F3000EF90DF90CF900895829590E09C01220F72
:100F4000331F220F331F2C7C959587959595879598
:100F50008373282B30E0C901880F991F8A7A359551
:100F600027952575822B0895CF93DF93D92F0E9463
:100F70009C07C82F8D2F0E949C079C2FDF91CF913B
:100F800008950C94B40481E008950C94C307089567
:100F9000CF93C82F0E94C1078C2FCF910C94C50707
:100FA000CF93DF93CDB7DEB72B970FB6F894DEBFA4
:100FB0000FBECDBF4F83588769877A878B876111B2
:100FC0000E94B1101E821D8285E0FE013796DE016F
:100FD000119601900D928A95E1F78C819D81892B64
:100FE00089F449815A816B817C818D819E810E9427
:100FF0009A0F2B960FB6F894DEBF0FBECDBFDF91D0
:10100000CF91089589819A8189238F3F51F3CE0131
:1010100001960E94C3068111E4CFEBCFFC018081D1
:1010200091810C94420DCF93C82F882309F471C08D
:101030008238C1F40E94EE1B81FD6BC089E30E94DF
:1010400038100E94D4102FEF81EE94E021508040A0
:101050009040E1F700C0000089E30E943F10CF916B
:101060000C94D4108338A1F40E94EE1B80FD51C073
:1010700083E50E9438100E94D4102FEF81EE94E097
:10108000215080409040E1F700C0000083E5E5CFAB
:101090008438A1F40E94EE1B82FD3BC087E40E94CD
:1010A00038100E94D4102FEF81EE94E02150804040
:1010B0009040E1F700C0000087E4CFCF8CEF8C0FA9
:1010C000813A90F46C2F80910001909101010E946F
:1010D000921C882329F08C2F0E943F100E94D4106C
:1010E0008C2F0E943810BBCF80E28C0F883048F4E0
:1010F000C77081E001C0880FCA95EAF70E9494107A
:10110000AECFCD3E30F08C2F0E944317CF910C9480
:101110001618CF910895882309F452C0823871F4CB
:101120000E94EE1B81FF4CC089E30E9438100E9490
:10113000D41089E30E943F100C94D410833859F4E2
:101140000E94EE1B80FF3CC083E50E9438100E9485
:10115000D41083E5EFCF843859F40E94EE1B82FF50
:101160002FC087E40E9438100E94D41087E4E2CF99
:101170009CEF980F913AF0F290E2980F983050F46B
:10118000877091E001C0990F8A95EAF7892F0E9434
:101190009A10D2CF9BE5980F933020F490E080E036
:1011A0000C94541C98E5980F973120F490E080E05F
:1011B0000C946A1C8D3E20F00E949D170C9416180A
:1011C00008951F93CF93DF93182FEB010E9413080C
:1011D000209731F4812FDF91CF911F910C948B08D0
:1011E0008FE99FE00197F1F700C000002197F0CF51
:1011F00070E060E0893311F460E570E00C94E10880
:10120000882321F00E9494100C94D4100895882310
:1012100021F00E949A100C94D4100895BF92CF929E
:10122000DF92EF92FF920F931F93CF93DF936C01A6
:10123000D62FC72FFC011281058102950F700E94E5
:101240005610E82E8823A1F0E12E112389F08C2F6F
:10125000807F803429F080E28D0FE12C883040F0CF
:1012600082E00E9425110E94561091E0E82EE926A6
:10127000BC2EB2949FE0B922FBE0FB1598F1EB2D58
:10128000F0E0EC5BFA4D0C94D9240C2F0F70C07F6A
:1012900011F00295007F1123A9F0002359F080E29C
:1012A0008D0F883010F0D11109C0802F0E9494104A
:1012B0000E94D4108D2F0E94130814C0802F0E940A
:1012C000A410F6CF8D2F0E948B08002359F080E2E6
:1012D0008D0F883010F0D1112CC0802F0E949A10F1
:1012E0000E94D4102B2D2850330B2430310520F4CC
:1012F0000E94EE1B0E94C807EE2009F472C10E94F2
:10130000521080FD6EC1F60112820E944C100E94A4
:10131000010CC6010E94120B0E944C10DF91CF916C
:101320001F910F91FF90EF90DF90CF90BF900C94A2
:10133000220C802F0E94AA10D3CF2C2F2F70F22EB8
:10134000C07FC03219F0F29480EFF822DD2369F0FB
:10135000D13049F1112391F1002351F1F60185813A
:1013600080FFA8CF8F70858323C0112381F00111E6
:1013700006C00E94B7108F290E940009B3CF013028
:10138000C1F70E94B7108F290E94BD10ABCF011189
:1013900006C00E94CA108F2D0E940709A3CF0130FA
:1013A00009F4A0CFF6CF112329F0033008F09ACF2B
:1013B0008F2DE2CF023008F095CFEDCF002359F307
:1013C000D93349F4FFEF27EE33E0F15020403040AD
:1013D000E1F700C000008D2F0E948B0883CF8D2F76
:1013E000112329F00E9443170E9416187BCF0E94F8
:1013F0009D17FACF8C2F837009F041C0111172CF65
:101400004D2F429546954770440F440F0D2F0F7096
:1014100010E030E020E0042E04C0000F111F221F56
:10142000331F0A94D2F760E070E0CB01D4FF0FC005
:101430006FE070E080E090E004C0660F771F881FC7
:10144000991F4A95D2F76095709580959095C695AD
:10145000C695C370602B712B822B932BC23049F041
:1014600058F4C13019F00E94B50B3CCF0E94A30B79
:1014700039CF0E94C70B36CF0E94A10B33CF869580
:10148000112311F08C2F8170882309F42BCF4D2F5D
:10149000429546954770440F440F0D2F0F7010E092
:1014A00030E020E0042E04C0000F111F221F331F64
:1014B0000A94D2F760E070E0CB01D4FF0FC06FE078
:1014C00070E080E090E004C0660F771F881F991FCE
:1014D0004A95D2F76095709580959095C695C6957A
:1014E000C370602B712B822B932BC23049F058F4C0
:1014F000C13019F00E94780CF5CE0E94660CF2CE35
:101500000E948A0CEFCE0E94DB0BECCECF70112331
:1015100029F08C2F0E94010C8D2F2ECF8D2F0E9431
:1015200007098C2F0E94220CDDCED23F89F160F496
:10153000D03FC9F0D13F29F1112309F442C0011174
:10154000B9CE8C2F8F7121C0D33F39F1D43FA1F791
:10155000112369F1CF718C2F0E94010C63E08C2F55
:101560000E940A11BFCE112341F0023008F0BACE1A
:101570008C2F8F710E94450CB5CE033008F0B2CE8F
:10158000F7CF8C2F8F71112369F20E94010CAACE24
:101590008C2F8F711123C9F3C5CF112329F08C2F04
:1015A0008F710E94EC0B9ECE0E94E70B9BCE81E0D8
:1015B0000E942511023008F495CE82E00E94251188
:1015C00091CE002359F0D93309F005CF8FEF97EE74
:1015D000E3E081509040E040E1F7FBCE8C2F8F712B
:1015E000A1CFDF91CF911F910F91FF90EF90DF90EE
:1015F000CF90BF9008950F931F93CF93DF93EC018B
:10160000688179818A810E944C0D8C010E949C0C1A
:101610000E94A00BB801CE01DF91CF911F910F91D5
:101620000C940E09CF93DF93EC018B819C81892B65
:1016300029F08881998189238F3F59F4DF91CF91D7
:101640000895CE010E94FB0ACE01DF91CF910C9448
:10165000C506CE010E94E8068111F3CF0E94561004
:10166000882361F38A81882349F382E0DF91CF9157
:101670000C9425110E94B1100E94B4100E94D41045
:101680000E94C9190C9416180E9446100C943A0B2B
:101690000E94A1100C94440BE92FE295EF70E250E8
:1016A000EE3070F4F0E0E05BFA4D0C94D924803F0A
:1016B00019F020F4883E20F481E00895843FE1F39E
:1016C00080E00895883EC0F3813FD1F7F5CF93FBCA
:1016D000882780F90895FC01808191810E94420D44
:1016E0000C944C0BCF93DF9300D000D00F92CDB76A
:1016F000DEB70F900F900F900F900F90DF91CF916A
:101700000895CF93DF9300D000D000D0CDB7DEB7DF
:1017100026960FB6F894DEBF0FBECDBFDF91CF91F6
:10172000089508950C94910B0E94920B609373019D
:101730007093740180937501909376010C943A0B29
:1017400008950C94940B0F931F93009173011091C3
:1017500074012091750130917601602B712B822BE1
:10176000932B1F910F910C94940B0F931F93009147
:1017700073011091740120917501309176016023FD
:101780007123822393231F910F910C94940B0F9339
:101790001F93009173011091740120917501309194
:1017A000760160277127822793271F910F910C9450
:1017B000940B0C948B040E94D90B60936F0170936F
:1017C000700180937101909372010C943A0B60E068
:1017D00070E0CB010C94DB0B0F931F9341E050E0C2
:1017E00060E070E08A019B0104C0000F111F221FFE
:1017F000331F8A95D2F7C901B8011F910F910C943C
:10180000DB0B0F931F9341E050E060E070E004C0F9
:10181000440F551F661F771F8A95D2F780916F017D
:1018200090917001A0917101B09172018A019B01A8
:10183000082B192B2A2B3B2BC901B8011F910F91A3
:101840000C94DB0B0F931F9341E050E060E070E0DD
:1018500004C0440F551F661F771F8A95D2F7CB012E
:10186000BA01609570958095909500916F011091E7
:1018700070012091710130917201602371238223E4
:1018800093231F910F910C94DB0B0F931F9341E057
:1018900050E060E070E004C0440F551F661F771FE2
:1018A0008A95D2F780916F0190917001A09171019A
:1018B000B09172018A019B01082719272A273B272B
:1018C000C901B8011F910F910C94DB0B0F931F936B
:1018D00000916F011091700120917101309172019E
:1018E000602B712B822B932B1F910F910C94DB0B90
:1018F0000F931F9300916F0110917001209171015E
:101900003091720160237123822393231F910F91E1
:101910000C94DB0B0F931F9300916F0110917001DA
:1019200020917101309172016027712782279327DE
:101930001F910F910C94DB0B0895CF93DF93282F09
:10194000362F892F6AE00E949F24820F982F97706C
:10195000E1E001C0EE0F9A95EAF7869586958695A7
:1019600090E065E070E00E94A824DC01A95BBE4F16
:1019700050E040E0632F70E08D91ED0121979B01D5
:10198000042E02C0369527950A94E2F7217021951E
:1019900028272E23282728834F5F5F4F4530510586
:1019A00059F7DF91CF910895282F892F6AE00E947F
:1019B0009F24820FA82FA77086958695869590E024
:1019C00065E070E00E94A824FC01E95BFE4F50E056
:1019D00040E080E0219130E00A2E02C03695279544
:1019E0000A94E2F721703327042E01C0220F0A94D3
:1019F000EAF7822B4F5F5F4F4530510559F7089545
:101A0000BF92CF92DF92EF92FF920F931F93CF93EB
:101A1000DF938C01C0906F01D0907001E090710154
:101A2000F09072018091730190917401A091750101
:101A3000B0917601C82AD92AEA2AFB2ACFE1D0E060
:101A4000BC2ED701C6010C2E04C0B695A79597955C
:101A500087950A94D2F780FD0EC0219788F7B12CA4
:101A60008B2DDF91CF911F910F91FF90EF90DF9021
:101A7000CF90BF900895B8018C2F0E94F713019763
:101A800061F3EECFCF93DF93EC010E94000DBE0116
:101A9000DF91CF910C94F7131F93CF93DF93EB015A
:101AA00090914601992331F0CB01DF91CF911F91A5
:101AB0000C94420D882379F0CB010E94000D182F61
:101AC000682FCE010E949D0CBE01812FDF91CF9126
:101AD0001F910C94F713CB010E94D40C182FF4CF54
:101AE000CF93DF93C0917701809178018C1303C06D
:101AF000DF91CF910895D0E0CE0166E070E00E94C2
:101B0000A824FC01E758FE4F408151816281738116
:101B1000848195810E94810B2196C770E5CF409109
:101B2000A9015091AA016091AB017091AC01809123
:101B3000AD019091AE010C94810B1F93CF93DF9375
:101B40008091AE01807FA1F48091AB01882381F068
:101B500020917701B09178014091A901A091AA014B
:101B6000C091AC01D091AD01142F1A23B21304C05F
:101B7000DF91CF911F91089530E0209711F01F3F22
:101B800021F42F5F3F4F2770F1CFC90166E070E06D
:101B90000E94A824FC01E758FE4F81818A13F1CFEF
:101BA00080818413EECF82818111EBCF8381948178
:101BB0008C1B9D0B8639910520F78091AE018F70AB
:101BC00080618093AE01C90166E070E00E94A824A4
:101BD000FC01E258FE4F90819F709061908389EAEA
:101BE00091E00E94120BDF91CF911F910C94700D28
:101BF000AF92BF92CF92DF92EF92FF920F931F931B
:101C0000CF93DF93CDB7DEB761970FB6F894DEBF01
:101C10000FBECDBF8C0185E0F801DE011D9601905D
:101C20000D928A95E1F7F801E28089EAC82E81E0F9
:101C3000D82E6091AC017091AD016115710509F468
:101C40005DC19091A9013091AA01892F83238F3F13
:101C500009F454C140812181A380B480F090AB018C
:101C6000F501E61BF70BFF2009F4F8C08091AE01E7
:101C7000582F507FE639F10508F0B0C051117AC0F5
:101C8000FE2C321323C0941321C0E1101FC08F70AB
:101C900080618093AE010E948F0DC6010E94120BDD
:101CA0008091AE01F80185838F2D61960FB6F8946F
:101CB000DEBF0FBECDBFDF91CF911F910F91FF907F
:101CC000EF90DF90CF90BF90AF900895AB2829F0B0
:101CD000842F82238F3F09F02AC180E0F82FF17012
:101CE000DF2EE09177013091780180FD20C0EE2059
:101CF000D9F28091AE0181608093AE01F12CD4CFF6
:101D0000F0E0CF0166E070E00E94A824DC01A75853
:101D1000BE4F11968C911197821307C08C9184133A
:101D200004C012968C91E812E2CF3196E770E3136B
:101D3000E7CF4D872E878D859E850E94420D292FE6
:101D400022952F70223050F0243078F49F7051F09B
:101D5000F8019581907F31F4D12C0AC09F7011F069
:101D60008823D1F3805E8830B8F3C8010E94120B3B
:101D7000FD2C9ACF321306C0941304C0F801EE2054
:101D800009F488C0C8010E946B0B882319F1EE206A
:101D900009F18091AE01803270F02091A90130915B
:101DA000AA0138872F831986BB86AA868C87CE0125
:101DB00007960E94120B86E0F801A9EAB1E00190B3
:101DC0000D928A95E1F70E949D0D0E948F0DFF24D0
:101DD000F3946ACFC8010E94120BF9CF511114C0BD
:101DE0007A2DB98AA88A522F6E2D89890E94720B8A
:101DF00089EA91E00E94120B86E0F60111928A9521
:101E0000E9F70E948F0D7ACF32130FC094130DC0E3
:101E1000E1100BC0F8018583C8010E94120B86E017
:101E2000F60111928A95E9F73FCFC8010E946B0B2A
:101E3000882381F2EE2071F28091AE01803208F4A5
:101E4000BACF2091A9013091AA013A8329831B823C
:101E5000BD82AC828E83CE010196ABCFE639F1050F
:101E600008F03EC0FE2CEE2009F4B4CF32132AC095
:101E7000941328C08091AE0180FD1BC0982F907FE5
:101E8000C1F0F8018583903F31F0982F907F905FEB
:101E90008F70892B8583C8010E94120B86E0F801A0
:101EA000A9EAB1E001900D928A95E1F70E948F0DA9
:101EB000FBCE86E0F801A9EAB1E001900D928A9587
:101EC000E1F7F2CEC8010E946B0B811174CF8091B3
:101ED000AE0181608093AE01C8010E94120BE4CE76
:101EE0007A2DB98AA88A522F6E2D89890E94720B89
:101EF00086E0F60111928A95E9F7D8CFEE2009F431
:101F000069CFC8010E946B0BF82E882309F462CFB9
:101F100086E0F801A9EAB1E001900D928A95E1F717
:101F200089EA91E00E940E080E949D0DBFCF81E0DA
:101F30008E25D4CECF93DF93CDB7DEB72C970FB6D7
:101F4000F894DEBF0FBECDBF4F83588769877A876D
:101F50008B879C87CE0107960E94F80D8823D1F0CD
:101F60008A859B85892B39F04F815885842F85235D
:101F70008F3F09F076C080917701909178018913A5
:101F800049C02C960FB6F894DEBF0FBECDBFDF91CF
:101F9000CF91089586E0FE013796DE0111960190FB
:101FA0000D928A95E1F78A859B85892B21F38F8194
:101FB000988589238F3FF9F28091780190E09C0108
:101FC0002F5F3F4F27703327409177014217130649
:101FD00071F40E94480B109278011092770186E00C
:101FE000E9EAF1E0DF011D928A95E9F7C4CF66E0E6
:101FF00070E00E94A824DC01A758BE4F96E0FE01C5
:10200000319601900D929A95E1F7209378010E9404
:10201000700DB1CF90E066E070E00E94A824875870
:102020009E4F0E94F80D882309F4ABCF8091770171
:1020300090E066E070E00E94A824FC01E758FE4FA3
:102040004081518162817381848195810E94810BDD
:102050008091770190E001968770992780937701AE
:102060008ACF69857A858B859C850E94810B83CF79
:10207000682F80910001909101010C94C81C682F79
:1020800080910001909101010C94CA1C8091000183
:10209000909101010C94CC1C8091AF0185958595A0
:1020A000859508958091AF01877008959091AF0153
:1020B000977081E009F480E00895CF93C82F809154
:1020C000FD0182FB992790F99C17D1F0C0FB82F9A2
:1020D0008093FD018091FC019091FD010E946811A7
:1020E0008091D10180FF0CC01F92CF938FE095E0CB
:1020F0009F938F930E9482040F900F900F900F90E8
:10210000CF9108958091FD0182FB882780F991E0AD
:1021100089270C945D1081E00C945D1080E00C9494
:102120005D108091BB0108959091BB01892B809334
:10213000BB01089580959091BB0198239093BB01BA
:1021400008951092BB0108959091BA01892B809354
:10215000BA01089580959091BA0198239093BA019D
:1021600008951092BA0108951092B90108958091CE
:10217000B001089508950C94BA109091FD0192FD5C
:1021800008C09091B001981721F08093B0010C9491
:10219000BB1008958091B001882329F01092B001FE
:1021A00080E00C94BB100895E0910001F0910101D2
:1021B0008091BB018083E0910001F0910101808159
:1021C0009091BA01892B8083E0910001F091010187
:1021D00080819091B901892B80839091B0019923DE
:1021E00081F0E0910001F09101018081892B8083D1
:1021F00080910001909101010E94801C81110E9438
:10220000CA1080910001909101010C94FA1B08956D
:102210000C9407119091FD0192FD10C0982F990F19
:10222000990F990F962B9093AF010E94010C80910A
:10223000AF018595859585950C9408110C94010C3A
:102240001092AF0180E00C9408119091AF0180953D
:1022500089238093AF01282F277039F4282F082E67
:10226000000C330B9217130621F49091FD0192FF9D
:1022700007C08595859585950E94220C0C942011A8
:1022800008956FEF7FEF90E080E00C942C2590E0B4
:1022900080E00E94082521E0893E9E4F09F020E061
:1022A000822F089582E090E00C94002583E090E076
:1022B0000C940025CF9384E090E00E940025C82F65
:1022C00082E290E00E940025982F8C2FCF910895F4
:1022D000CF93C92F682F84E090E00E940E256C2FC9
:1022E00082E290E0CF910C940E25AB01BC018FE00F
:1022F00090E00C942025AB01BC0183E190E00C94AC
:10230000202560E070E0CB010C947B1160E070E070
:10231000CB010E9475110C94811169EE7EEF90E063
:1023200080E00E942C2560E082E090E00E940E2573
:1023300060E083E090E00E940E25109273011092FD
:102340007401109275011092760160E084E090E0D3
:102350000E940E2560E082E290E00E940E2560E07F
:1023600085E090E00E940E2560E086E090E00E940B
:102370000E256FEF87E090E00E940E2540E050E0D0
:10238000BA0188E090E00E94202560E08DE090E0B6
:102390000E940E2540E050E0BA0188E190E00E94E2
:1023A000202560E087E190E00E940E2540E050E0AB
:1023B000BA018CE190E00E94202570E060E080E2AC
:1023C00090E00E942C2540E050E0BA0188E190E0C6
:1023D0000E9420250C9486110C948D11682F8EE09C
:1023E00090E00C940E250E94631D6093CD017093C4
:1023F000CE018093CF019093D0016093C901709377
:10240000CA018093CB019093CC010895089508955B
:102410000C94061208950C940A128FE29FE10E9418
:10242000C61D0E9407120C94081281E008950C94B6
:102430001512089508950E9419120C941A120E9400
:102440004E1D0E9419160C940B12CF93C82F809129
:10245000D10182FF1EC080FF1CC08BE295E00E946C
:10246000E9038091D10180FF14C01F92CF9386E2CF
:1024700095E09F938F930E9482048091D1010F90E9
:102480000F900F900F9080FF04C084E295E00E94AF
:10249000E9038C2FCF910C94C8078F929F92AF9233
:1024A000BF92CF92DF92EF92FF920F931F93CF9341
:1024B000DF93CDB7DEB72A970FB6F894DEBF0FBE15
:1024C000CDBF0E942C1681110E94F3115DEB852E69
:1024D00051E0952E10E000E0A02E802F0E941715ED
:1024E0006C01F401E190F1904F01E816F90609F44E
:1024F0005CC08091D10181FD0E942015C7018C250F
:102500009D25B12CEE24E394F12C9C012E213F213A
:10251000232B09F444C00E9417128823A9F0BE821D
:10252000AF82CE20DF2081E0CD2809F480E08887CB
:102530000E94571D8160782F9A8789874E815F811D
:1025400068858A850E94D007000F111FF801E354A7
:10255000FE4F80819181E826F926F182E0820E9477
:10256000B3180E94EE1B9091BC018917A9F10E943B
:10257000EE1B8093BC012A960FB6F894DEBF0FBE07
:10258000CDBFDF91CF911F910F91FF90EF90DF9022
:10259000CF90BF90AF909F908F900C942512B394E2
:1025A000EE0CFF1CFAE0BF12B0CF0F5F1F4F0630DA
:1025B000110509F091CF8FEF89838A831B820E94D6
:1025C000571D8160782F9D838C8349815A816B814F
:1025D0008D810E94D007C3CF2A960FB6F894DEBF34
:1025E0000FBECDBFDF91CF911F910F91FF90EF9064
:1025F000DF90CF90BF90AF909F908F900895CF9332
:10260000DF930E94FB13EC01811522E5920778F518
:10261000811531E5930708F09DC08F3F910509F0C2
:10262000B8F48D3E910508F072C0853A910540F4EA
:102630008430910548F4019739F0D0E0C0E004C03F
:10264000805E91090897C8F7CE01DF91CF91089578
:10265000811540E5940708F05FC0C11580E4D807F4
:1026600008F057C0C11520E2D20770F3E6CF8115FC
:1026700036E5930730F5811545E5940708F085C0E8
:10268000C11584E5D80708F07BC09C2F96959695D8
:102690009E0123703327C115D34508F460C0C1E003
:1026A000D0E002C0CC0FDD1F2A95E2F7892F90E021
:1026B00075E0880F991F7A95E1F7C82BD92BDA6856
:1026C000C3CFC1158AE5D80778F4C11529E5D2072B
:1026D00008F065C0C11538E5D30708F4AECFDC2F8C
:1026E000CC27C06FD06AB0CFCE01905681159042F2
:1026F00008F0A3CF8D2F8F710E94921490E0982F35
:10270000882788279F719C012C2BE90146C0D06542
:102710009BCFDF70D06A98CFA4E096958795AA9555
:10272000E1F783702C2F26952695237030E0B5E0D5
:10273000220F331FBA95E1F7382B8C2F8370C1E03D
:10274000D0E002C0CC0FDD1F8A95E2F7C22BD32B5D
:10275000DC687ACFD82FCC27C16FD06A75CFC1E0A3
:10276000D0E002C0CC0FDD1F2A95E2F7892F90E060
:10277000E5E0880F991FEA95E1F7C82BD92BE8CF40
:10278000DC2FCC27C46FD06A5FCF0E949214C82F71
:10279000D0E0DC2FCC27CC27DF71D06255CF8C2F37
:1027A0008F700E94921434E0D695C7953A95E1F760
:1027B000CF709C2FEC01D06947CF282FE62F872FB1
:1027C00090E06AE070E00E94A824E80FF92FF11D64
:1027D000822F90E06CE370E00E94A824E80FF91FBC
:1027E000EE0FFF1FEC54FF4F8591949108950E94C6
:1027F000DD130C94FF1282389105B1F1B0F48133EE
:10280000910509F475C048F48932910509F469C04D
:102810008A32910509F473C008958533910509F44E
:1028200059C08933910501F10895833E9105A9F1BD
:1028300038F4803E9105F9F0823E910549F1089502
:10284000863E9105A9F1873E9105C9F1843E910527
:1028500019F52091FD0121FF1FC08091FC0184FD2D
:1028600014C087EE90E008952091FC012370A1F040
:1028700080EE90E008952091FC0120FD47C030914A
:10288000FD0130FF09C024FF44C090E080E004C097
:102890002091FC0122FDF7CF08952091FC0122FD3B
:1028A0003BC03091FD0130FDE3CF24FFF5CFEDCFEC
:1028B0002091FC0123FFF0CF24FDE7CFD2CF209160
:1028C000FC0123FD2CC03091FD0131FFEECF84EEE1
:1028D00090E008952091FC0125FFDECF89E290E091
:1028E00008952091FC0125FFD7CF85E390E008955E
:1028F0002091FC0126FFD0CF8AE290E0089520913C
:10290000FC0126FFC9CF81E390E0089589E390E0C0
:10291000089583EE90E0089582EE90E0089586EEAB
:1029200090E008959091FC0192FF06C0282F287135
:102930002830F9F4877F846093FF06C0282F287120
:102940002831F1F4877E84612091FD0120FF06C0CB
:10295000382F38713830D9F4877F816021FF06C065
:10296000282F28712831D1F4877E816194FD877EDC
:102970000895282F24712430F9F68B7F8860DCCFEE
:10298000282F2471243101F78B7E8861DDCF382F09
:102990003171313019F78E7F8860E0CF282F217197
:1029A000213121F78E7E8861E1CF0C9441110E9484
:1029B0002C168FE39CE90197F1F700C000000E94FC
:1029C0002C1680E00E94171580FF04C00E94D514C9
:1029D0000C94A21D08950C94D7140E9447118111E4
:1029E00002C00E94EC110E9452118093D1010E94FA
:1029F0005A119093FD018093FC010E94EB140E94F8
:102A00005611682F70E090E080E00E94A10B609169
:102A10006F017091700180917101909172010C941D
:102A2000D90B08950C94111508950C941415E82FE2
:102A3000F0E0EE0FFF1FE65FFD4F8081918108956A
:102A4000CF92DF92EF92FF920F931F93CF93DF937A
:102A50008EE495E00E94E9038AE0E82E82E0F82EF9
:102A6000D0E0C0E099E4C92E95E0D92E00E415E04D
:102A7000DF93CF93DF92CF920E94820486E495E0A9
:102A80000E94E903F701819191917F010E94B407AF
:102A90009F938F931F930F930E9482048EE395E080
:102AA0000E94E90321968DB79EB708960FB6F89459
:102AB0009EBF0FBE8DBFC630D105D1F6DF91CF913D
:102AC0001F910F91FF90EF90DF90CF90089580EAD3
:102AD0008A95F1F7089500C008950C946715F8944D
:102AE000E82FE295EF70F0E031A1282F2F7081E000
:102AF00090E001C0880F2A95EAF7982F90959323CC
:102B000091A392A1892B82A378940895CF93DF9308
:102B1000C5E2D1E089918F3F11F00E946F1581E0ED
:102B2000CB32D807B9F7CBE1D1E089918F3F11F0D3
:102B30000E946F1581E0C532D807B9F7DF91CF91B8
:102B40000895AF92BF92CF92DF92EF92FF920F93D0
:102B50001F93CF93DF938C01B62EC62FD0E0CE010A
:102B60008B5D9E4F7C01FC0120812F3F09F453C0F7
:102B7000F894E22FE295EF70F0E031A12F7081E040
:102B800090E001C0880F2A95EAF7932F982B91A324
:102B900092A18095892382A378940E946B15EBE122
:102BA000F1E030E020E0D12CC12C41E050E08191F7
:102BB0008F3FE1F1A82FA295AF70B0E090966C9195
:102BC00070E08F7002C0759567958A95E2F760FD99
:102BD0002DC0CA01022E02C0880F991F0A94E2F785
:102BE000C82AD92A2F5F3F4F2A30310501F7F70154
:102BF00080818F3F11F00E946F1561E0C114D104F4
:102C000009F460E08B2D0E946D15CC0FDD1FC00F05
:102C1000D11FD982C882DF91CF911F910F91FF9070
:102C2000EF90DF90CF90BF90AF90089590E080E05C
:102C3000D7CF0E948615EEEFF1E0AAE0B2E0119244
:102C400011921D921D9282E0EA30F807C1F786E0EA
:102C50000E9477160C94D006FF920F931F93CF9388
:102C6000DF93CDB7DEB72C970FB6F894DEBF0FBE5B
:102C7000CDBF8E010F5F1F4F8CE0F80111928A9536
:102C8000E9F7F12C6F2DC8010E94A115F394F6E02D
:102C9000FF12F8CF4CE050E0B8018EEF91E00E94B7
:102CA000F324FF24F394009709F4F12C892B41F0CD
:102CB0008CE0F801AEEFB1E001900D928A95E1F75A
:102CC0002F2D46E06AE072E08EEF91E00E947816C8
:102CD0000E94D6068F2D2C960FB6F894DEBF0FBE3D
:102CE000CDBFDF91CF911F910F91FF90089508956F
:102CF000FF920F931F93CF93DF93F82E092F162F78
:102D0000D72FC42F222349F081E08093D4010E9461
:102D1000571D9093D3018093D2018091D4018823D1
:102D2000A1F08091D2019091D3010E946F1D05976F
:102D300060F0EF2DF02FA12FBD2F90E080E0D0E0CC
:102D40008C179D0744F01092D401DF91CF911F9111
:102D50000F91FF900895219131912D933D9301960C
:102D6000EFCF0E94D31C0E94911F0E94AA1F0E94B5
:102D7000C01F0E941B12FBCF8091DD0180FF11C09C
:102D80008091060190E065E070E00E94A82495958E
:102D900087959595879580389105B0F50097B1F1A5
:102DA000089581FF0AC08091060190E065E070E01F
:102DB0000E94A82495958795EECF82FF08C0809148
:102DC000060190E065E070E00E94A824E4CF8091C5
:102DD000DC018823B1F0209105016091060170E0CB
:102DE000821710F0CB01EECF90E00E94A82465E09E
:102DF00070E00E94A824622F70E00E94C524CB01DD
:102E0000CACF85E090E008958FE7089581E00895A6
:102E10008091DD0180FF0CC06091030170E0759529
:102E20006795759567956115710559F1862F089518
:102E300081FF06C06091030170E075956795F3CF3F
:102E40006091030170E082FD0CC06091DB0166239C
:102E5000A9F0209102018091030190E0621730F007
:102E6000BC0160387105F8F28FE7089570E00E94A8
:102E7000A824622F70E00E94C524F3CF61E070E0C7
:102E8000D5CF81E008958D3E31F40E94BC16819526
:102E90008093E10108958E3E19F40E94BC16F8CF8C
:102EA0008F3E31F40E94BC1681958093E001089515
:102EB000803F19F40E94BC16F8CF893F29F40E9484
:102EC00008178093E20108958A3F21F40E940817B1
:102ED0008195F7CF8B3F31F40E940817819580933D
:102EE000E30108958C3F19F40E940817F8CF9FE082
:102EF000980F983070F4815F990B21E030E001C0A9
:102F0000220F8A95EAF78091DF01822B8093DF01FF
:102F100008958D3F31F48091DD0181608093DD0162
:102F200008958E3F21F48091DD018260F7CF8F3FBD
:102F3000B9F78091DD018460F1CF4091E0018D3ED1
:102F400059F48091E10187FF0DC01092E101411118
:102F50000BC01092DC0108C08E3E81F48091E1012B
:102F600018169CF3442381F08091E2019091E301D3
:102F7000892B09F05AC01092DB0108958F3E49F465
:102F800047FFF0CF1092E0018091E1018111ECCF79
:102F9000E0CF803F19F41416ACF3E4CF9091E20136
:102FA000893F29F41916F4F61092E201DBCF8A3F2B
:102FB00019F497FFD7CFF8CF9091E3018B3F29F415
:102FC00097FFD0CF1092E301CDCF8C3F19F41916A3
:102FD000CCF3C8CF9FE0980F983090F4815F990BA5
:102FE00021E030E0B90102C0660F771F8A95E2F751
:102FF000CB0180959091DF0189238093DF01B2CFCF
:103000008D3F31F48091DD018E7F8093DD01AACF69
:103010008E3F21F48091DD018D7FF7CF8F3F09F046
:10302000A1CF8091DD018B7FF0CF08958091D101F8
:1030300083FF7EC08CE895E00E94E9038091DF0168
:103040001F928F9387E895E09F938F930E9482044D
:1030500085E895E00E94E9038091E001282F082E81
:10306000000C330B3F938F9382E895E09F938F93EF
:103070000E94820480E895E00E94E9038091E101CA
:10308000282F082E000C330B3F938F938DE795E08C
:103090009F938F930E9482048BE795E00E94E9033F
:1030A0008091E201282F082E000C330B3F938F9361
:1030B00088E795E09F938F930E94820486E795E0CE
:1030C0000E94E9038091E301282F082E000C330BA6
:1030D0003F938F9383E795E09F938F930E948204A1
:1030E00080E795E00E94E9038091DC011F928F93B5
:1030F0008DE695E09F938F930E9482048BE695E086
:103100000E94E9038091DD011F928F9388E695E08C
:103110009F938F930E94820485E695E00E94E903C5
:103120008DB79EB74C960FB6F8949EBF0FBE8DBF5D
:103130000E94571D9C019091E0018091E101982B24
:1031400021F03093DA012093D9019091E20180912E
:10315000E301982B21F03093D8012093D7018EED15
:1031600091E00C94461CEF92FF920F931F93CF9324
:10317000DF9300D000D000D0CDB7DEB786E0EEED13
:10318000F1E0DE01119601900D928A95E1F7E09051
:10319000E001F090E1010091E2011091E301109251
:1031A000E0011092E1011092E2011092E3018E2DF4
:1031B0008F2991F08091D9019091DA010E946F1DC1
:1031C000FC012091DC01222309F43FC0809107011A
:1031D0008E171F0608F448C0802F812B91F0809134
:1031E000D7019091D8010E946F1DFC012091DB0155
:1031F000222309F47CC0809104018E171F0608F475
:1032000085C08091E0019091E101892B9091E201CC
:10321000892B9091E301892B11F00E94161886E00A
:10322000FE013196AEEDB1E001900D928A95E1F785
:1032300026960FB6F894DEBF0FBECDBFDF91CF91BB
:103240001F910F91FF90EF9008958091D60190E02B
:103250006AE070E00E94A8248E179F0708F0BCCF98
:103260002F5F2093DC0102C02F3FD1F7EE2051F0F9
:103270000E94BC166FEF1E140CF461E00E949F24A4
:103280008093E001FF2051F00E94BC166FEF1F14E5
:103290000CF461E00E949F248093E1018091E001A1
:1032A000882309F499CF2091E101222309F494CFD6
:1032B000082E000C990B65EB70E00E94A82499235E
:1032C00071F09093E001822F220F990B65EB70E073
:1032D0000E94A824992339F09093E1017DCF81E0E9
:1032E0008093E001F0CF81E08093E10175CF809180
:1032F000D50190E06AE070E00E94A8248E179F0735
:1033000008F07FCF2F5F2093DB0102C02F3FD1F762
:10331000002351F00E9408176FEF10160CF461E0C3
:103320000E949F248093E201112351F00E9408170C
:103330006FEF11160CF461E00E949F248093E3016B
:103340008091E201882309F45CCF2091E3012223DC
:1033500009F457CF082E000C990B65EB70E00E9422
:10336000A824992371F09093E201822F220F990BE8
:1033700065EB70E00E94A824992339F09093E30153
:1033800040CF81E08093E201F0CF81E08093E301C0
:1033900038CF86E0EEEDF1E0DF011D928A95E9F786
:1033A0001092DC011092DB011092DD0108950F9361
:1033B0001F93CF93DF93C42FD22FFC0182818823E8
:1033C000C9F04093E6010E94571D9093E501809358
:1033D000E40180E28C0F883008F050C0C77081E0B3
:1033E00001C0880FCA95EAF7DF91CF911F910F9125
:1033F0000C9400091091E601141335C08091E4018A
:103400009091E5010E946F1D8639910560F5C0E23B
:10341000CD0F1D17B9F080E2810F883040F417708E
:1034200081E001C0880F1A95EAF70E940709C830A9
:1034300048F481E09D2F977001C0880F9A95EAF7B4
:103440000E940009802F0E94F808C830B8F4D77095
:1034500081E001C0880FDA95EAF7DF91CF911F91E3
:103460000F910C94070980E28C0F883038F4C770F4
:1034700081E001C0880FCA95EAF7EFCFDF91CF91C5
:103480001F910F9108950F939C01CB01243F4CE5B0
:10349000340759F1A8F4293DFCE53F0701F12A3D25
:1034A0004CE53407D1F1283D3C4591F406E221EE8C
:1034B00041EE68ED7CE50E94D71980E00F910895F8
:1034C000263FFCE53F07E9F0B0F0273F3C45F9F027
:1034D000FC018281882339F11092E601EFCF07E2E7
:1034E00025EE45EE69ED7CE5E6CF06E221EE40EE05
:1034F00064EF7CE5E0CF07E225EE44EE65EF7CE586
:10350000DACF06E221EE42EE66EF7CE5D4CF07E2A9
:1035100025EE46EE67EF7CE5CECF08E221E045EEF2
:103520006AED7CE5C8CF81E0C9CFCF93DF93EC0192
:10353000FB018281882309F420C1C430FDE5DF0747
:10354000C8F5CB3F9CE5D90730F49E0122503C459D
:103550002431310598F50E945A119093FD01809312
:10356000FC01C031FCE5DF0709F4E0C008F061C0F0
:10357000C8309CE5D90709F4CBC088F5C430FCE518
:10358000DF0709F4B3C0E8F4C2309CE5D90709F4B9
:10359000A7C08091FC018260C330DC4509F4A3C060
:1035A0008091FC019091FD010E9468110E94480BDE
:1035B00080E004C0C236EDE5DE0769F2DF91CF910D
:1035C00008958091FC018061C630FCE5DF0709F4B5
:1035D0008AC008F48FC08091FC01806284C0809111
:1035E000FC018D7FCC309CE5D90709F47CC070F4D8
:1035F0008091FC018C60CA30FCE5DF0709F473C0E0
:1036000008F48AC08091FC018E7F6DC08091FC011E
:10361000877FCE309CE5D90709F465C08091FC0115
:103620008B7FCF30DC4508F45EC08091FC018F7E3B
:103630005AC0CD3FFCE5DF0709F474C040F5C43142
:103640009CE5D90709F48AC058F4C231FCE5DF07CC
:1036500009F474C008F46EC08091FC01837F43C0FC
:10366000CB3F9CE5D90709F449C008F04DC0C531EE
:10367000DC4509F095CF8091FC0182FB992790F9F8
:1036800021E0922790FB82F990FB83F92CC0C13096
:103690008DE5D80709F458C088F48091FD01836056
:1036A000CF3FECE5DE0769F18091FD018D7FC1150B
:1036B000DD4538F18091FD018C7F23C0C3308DE55D
:1036C000D80709F458C008F452C0C236DD4509F0E5
:1036D00067CF9091FC01892F8F7E94FF806103C09A
:1036E0008091FC0181608093FC015ACF8091FC01A4
:1036F0008460F9CF8091FC018860F5CF8091FD0155
:1037000081608093FD014CCF8091FD018260F9CFF3
:103710008091FC018064E7CF0E94480B8091FC01FE
:103720008068E1CF8091FD018E7FEBCF8091FC011D
:103730008F7DD9CF8091FC018F7BD5CF0E94480B24
:103740008091FC018F77CFCF8091FD01982F9095CC
:1037500091708E7F892B90FB81F9D3CF0E94480B0B
:103760009091FC01892F97FB87F98058BCCF81E0AD
:103770000E94EE1115CF80E0FBCF81E01FCFCF93E9
:10378000DF93EB0186319C4511F50E9491109A81DF
:10379000992399F08A7A91E009F490E09093E701F7
:1037A000811109C089E20E9438100E94D41080E083
:1037B000DF91CF91089585E3F6CF8091E7018111E4
:1037C00004C089E20E943F10F0CF85E3FBCF81E087
:1037D000EFCF9093ED018093EC010895E091EC011F
:1037E000F091ED01309721F00190F081E02D0994E6
:1037F00080E00895EF92FF920F931F93CF93DF9392
:103800008C01E091EC01F091ED013097C1F1028063
:10381000F381E02D09958091D10182FF30C080FFB6
:1038200004C087EB95E00E94E903D0E0C0E081EBA3
:10383000E82E85E0F82E8091D10180FF0EC0F801BE
:10384000EC0FFD1F80811F928F93FF92EF920E94D9
:1038500082040F900F900F900F902196C830D105E1
:1038600051F78091D10180FF0AC08FEA95E0DF9186
:10387000CF911F910F91FF90EF900C94E903DF918E
:10388000CF911F910F91FF90EF900895E091EC017F
:10389000F091ED01309739F022E0DC012C930480A7
:1038A000F581E02D099408952091EA013091EB0112
:1038B0002817390771F09093EB018093EA01E091AA
:1038C000EC01F091ED01309721F00680F781E02DB9
:1038D000099408952091E8013091E90128173907EA
:1038E00071F09093E9018093E801E091EC01F0918F
:1038F000ED01309721F00084F185E02D09940895C1
:103900009C012E5F3F4FAC01485F5F4F80E0241762
:10391000350709F40895F90191919F019923B9F3AD
:103920008F5FF5CF662349F0FC013296089621910E
:10393000261729F0E817F907D1F780E0089581E00C
:1039400008959C01FC0132969FEF80E0419146175B
:1039500051F09F3F19F4411101C0982F8F5F8630BD
:10396000A9F79F3F09F40895290F311D97FD3A9556
:10397000F90162830895FC0132960896219126137D
:1039800003C0DF0111971C92E817F907B9F70895F2
:103990000C94A11C0C94BB1C029626E0FC01119215
:1039A0002A95E9F708950895089508950C94D51C73
:1039B00080911E02843049F10E94D61C80E00E9452
:1039C000C8071092EE0188E190E020E40FB6F89469
:1039D000A895809360000FBE2093600083B7817F1D
:1039E000846083BF83B7816083BF7894889583B7F1
:1039F0008E7F83BF0FB6F894A89580916000886190
:103A000080936000109260000FBE08950895CF93D8
:103A10000E94D41C0E942C160E94061DC0E08C2F10
:103A20000E941715892B31F4CF5FC630C1F780E0B3
:103A3000CF91089581E0FCCF08950C941C1D0E9445
:103A4000480B0E94EE1B0E94C8070C941D1D1F927C
:103A50001FB61F9211248F939F93AF93BF938091B2
:103A6000EE01811113C08091160290911702A0916E
:103A70001802B09119024196A11DB11D8093160242
:103A800090931702A0931802B0931902BF91AF91BF
:103A90009F918F911F901FBE1F90189582E084BD4B
:103AA00093E095BD9AEF97BD80936E0008952FB770
:103AB000F8948091160290911702A0911802B0918B
:103AC00019022FBF08952FB7F894609116027091D4
:103AD000170280911802909119022FBF08959C013E
:103AE0004FB7F8948091160290911702A091180296
:103AF000B09119024FBF821B930B089578941F92C7
:103B00001FB61F9211248F939F93AF93BF93809101
:103B1000160290911702A0911802B0911902019615
:103B2000A11DB11D8093160290931702A093180255
:103B3000B0931902BF91AF919F918F911F901FBEBB
:103B40001F90189581E08093E00080E28093D80078
:103B50001092C9008FE19EE40197F1F700C00000C8
:103B600087E090EBDC018093270290932802A093DA
:103B70002902B0932A0288E19CE00FB6F894A89538
:103B8000809360000FBE90936000FFCF90933B0145
:103B900080933A0108958091FA01089508959C0157
:103BA00082E08093E9009FEF8091E800915085FDCD
:103BB00006C085ED8A95F1F700009111F5CF80914F
:103BC000E80085FF0CC050E040E066E070E0C9010D
:103BD0000E944E208091E8008E778093E80008953F
:103BE000CF93DF93EC0181E08093E9008FEF909118
:103BF000E800815095FD06C095ED9A95F1F700001B
:103C00008111F5CF8091E80085FF14C050E040E0BD
:103C100068E070E0CE010E944E208091E8008E772F
:103C20008093E80088E0FE01A2EFB1E001900D92E0
:103C30008A95E1F7DF91CF910895089586EE95E09A
:103C40000C94E90382EE95E00C94E9038EED95E087
:103C50000C94E9032091F0012F5F822F62E30E9410
:103C6000B924992319F02093F00108951092F001DE
:103C70008091F1018823F1F080911E028430C1F41B
:103C80009091E9009F702091EC00822F817020FDBF
:103C900080E8892B93E09093E9009091EB0090FFEE
:103CA00004C09091EE0097FD08C08F708093E900EA
:103CB0001092F10108951092F1009091E80095FDA5
:103CC000FACF9091E80090FFF0CF9091E8009E77B6
:103CD0009093E800EACF42E061EC81E00E94562137
:103CE00042E261EC82E00E94562142E261EC83E014
:103CF0000C94562180912002833009F45DC030F489
:103D00008130B1F1823009F499C008958A3009F404
:103D100085C08B3009F46BC0893009F04CC08091AC
:103D20001F02813209F047C0809123029091240242
:103D3000029708F040C08091E800877F8093E800F8
:103D40008091E80082FF33C08091F200823029F434
:103D50008091F1008B7F813021F48091F10080937C
:103D6000FA018091E8008B778093E8000C948A2117
:103D700080911F02813AF9F48091E800877F809357
:103D8000E8008091230290912402892B61F468E07D
:103D900082EF91E070E00E949D208091E8008B7797
:103DA0008093E800089560E090E080E0F3CF809198
:103DB0001E028111C5CF089580911F02813AD9F763
:103DC0008091230290912402892BA9F78091E80029
:103DD000877F8093E8008091E80080FFFCCF80918E
:103DE00012018093F1008091E8008E77BDCF809121
:103DF0001F02813201F78091230290912402892BC6
:103E0000D1F68091E800877F8093E8000E948A21A4
:103E100080912102809312010C94480B80911F0223
:103E2000813249F68091E800877F8093E8000E9404
:103E30008A21809122028093FB01089580911F02C4
:103E4000813A09F0B8CF8091E800877F8093E8003D
:103E50008091E80080FFFCCF8091FB01C2CF9FB72B
:103E6000F8941092F1019FBF90911E02943009F0D6
:103E700048C02091E9002F703091EC00932F917091
:103E800030FD90E8922B23E02093E9002091EB0095
:103E900020FF34C02091EE0027FF30C02091EF01B9
:103EA000222321F02091E80025FF28C01092EF0185
:103EB00026E03091E80035FF14C08093F100809136
:103EC000E80085FD27C08091E80080FFFCCF80914D
:103ED000E8008E778093E8009F709093E90080E07F
:103EE000089530911E02343049F43091EB0035FDD5
:103EF00005C0215041F481E08093EF019F709093C1
:103F0000E9008FEF0895EFE9FFE03197F1F700C086
:103F10000000CFCF8FB7F89421E02093F1018FBF3D
:103F2000DBCF84B7877F84BF0FB6F894A8958091C4
:103F30006000886180936000109260000FBE80E88E
:103F400090E00FB6F89480936100909361000FBEEB
:103F50000C940D120E94DA210E942D22E2EEF0E074
:103F600080818460808378940E9484240E941F1240
:103F700088E091E00E94E91B8DEC95E00C94E90348
:103F800080911E02853051F489EC95E00E94E9038E
:103F900080911E02853021F00E941F1D0C944D124D
:103FA0000E94D81C80911C02882391F30E94071D57
:103FB000882371F30E9438200E94480BE9CF0C94AB
:103FC000E11F292F33272330310521F168F42130F7
:103FD000310509F443C02230310509F444C090E0B2
:103FE00080E030E020E026C02132310551F122325C
:103FF0003105A9F76330710590F7FB01EE0FFF1F44
:10400000E25DFE4F20813181655D7E4FFB01808145
:1040100090E010C099278130910581F0009729F038
:104020000297E9F6EAEEF5E002C0ECE0F6E08491F2
:1040300090E09F01FA01318320830895E2E0F6E0E9
:10404000F6CF6330710558F6660F771FFB01EC5C05
:10405000FE4F2081318189E090E0ECCF82E190E059
:104060002BE636E0E7CF8BE590E020E136E0E2CFCB
:1040700084E089BD86E089BD09B400FEFDCF809152
:10408000D8008F7D8093D8008091E000826080937B
:10409000E0008091E00081FDFCCF0895AF92BF92D7
:1040A000CF92DF92FF920F931F93CF93DF936C0118
:1040B000EB018A010E94A921F82E811123C001156C
:1040C000110539F0F80180819181C81BD90BC80E08
:1040D000D91EB12CA12C2097A9F08091E80085FD74
:1040E00022C08091E8008E778093E80001151105C9
:1040F000A1F0F80180819181A80EB91EB182A08241
:1041000085E0F82E8F2DDF91CF911F910F91FF90B9
:10411000DF90CF90BF90AF9008950E94A92188238F
:10412000D1F2F82EEFCFF60181916F018093F1006B
:104130002197FFEFAF1ABF0ACECFFC018091250275
:104140009091260286179707A0F06115710529F452
:104150009091E8009E779093E80090E061157105DA
:1041600051F4911108C08091E80082FF32C080E0D4
:104170000895BC01F2CF80911E028823B1F18530F1
:10418000B1F18091E80083FD2EC08091E80082FDAE
:10419000EACF8091E80080FFE1CF2091F20030E08B
:1041A0006115710519F02830310558F091E028307B
:1041B000310509F090E02091E8002E772093E80087
:1041C000CDCF81918093F100615071092F5F3F4FF6
:1041D000E7CF80911E02882341F0853041F0809125
:1041E000E80083FFC0CF81E0089582E0089583E076
:1041F0000895FC0180912502909126028617970769
:10420000A0F06115710529F48091E8008E77809304
:10421000E80090E06115710551F4911108C080919A
:10422000E80082FF33C080E00895BC01F2CF8091A6
:104230001E028823B9F18530B9F18091E80083FD31
:104240002FC08091E80082FDEACF8091E80080FFD6
:10425000E1CF2091F20030E06115710519F02830AE
:10426000310558F091E02830310509F090E0809157
:10427000E8008E778093E800CDCF84918093F100A1
:104280003196615071092F5F3F4FE6CF80911E023A
:10429000882341F0853041F08091E80083FFBFCF53
:1042A00081E0089582E0089583E00895982F953085
:1042B00028F08F708093E90081E008959093E900E1
:1042C000242F762F50E0981731F07091EC00209158
:1042D000ED005091F00021FD02C09F5FE8CF3091CA
:1042E000EB003E7F3093EB003091ED003D7F30934B
:1042F000ED003091EB0031603093EB007093EC00F7
:104300002093ED005093F0002091EE0027FDE5CFC3
:1043100080E0089580911F0287FF13C08091E8001C
:1043200082FF06C08091E8008B778093E80004C08C
:1043300080911E028111F2CF089580911E02882380
:10434000D9F38091E80080FFF8CF8091E8008E7764
:10435000ECCF2091E4003091E50095E6A901209191
:10436000EC00822F817020FF06C08091E80080FF62
:1043700006C080E008952091E80022FD1AC08091D7
:104380001E02882389F0853089F08091EB0085FD3D
:104390000FC02091E4003091E50042175307F9F275
:1043A0009150E1F684E0089582E0089583E0089555
:1043B00081E008950E9437220E943A22E0EEF0E068
:1043C000808181608083E8EDF0E080818F77808359
:1043D00019BCE3E6F0E080818160808310921D02C9
:1043E00008950E9437220E943A228091D8008F7748
:1043F0008093D8008091D80080688093D800809105
:10440000D8008F7D8093D80084E089BD86E089BD87
:1044100009B400FEFDCF10921E0210921A021092F3
:104420001C0210921B0242E060E080E00E945621D4
:104430008091E1008E7F8093E1008091E2008160B5
:104440008093E2008091E20088608093E200809196
:10445000E0008E7F8093E0000895E3E6F0E0808145
:104460008E7F808381E080931D020C94F121109255
:10447000E20008951092E10008951F920F920FB686
:104480000F9211242F933F934F935F936F937F93DA
:104490008F939F93AF93BF93EF93FF938091E1002E
:1044A00082FF0BC08091E20082FF07C08091E10093
:1044B0008B7F8093E1000E942A1E8091E10080FFA3
:1044C00019C08091E20080FF15C08091E2008E7FCC
:1044D0008093E2008091E20080618093E20080910D
:1044E000D80080628093D80019BC85E080931E02BA
:1044F0000E94221E8091E10084FF2BC08091E20087
:1045000084FF27C084E089BD86E089BD89B5982FE6
:10451000917080FFFBCF8091D8008F7D8093D80071
:104520008091E1008F7E8093E1008091E2008F7E98
:104530008093E2008091E20081608093E2008091AC
:104540001A02882309F443C084E080931E020E946B
:10455000261E8091E10083FF29C08091E20083FF45
:1045600025C08091E100877F8093E10082E0809305
:104570001E0210921A028091E1008E7F8093E1006A
:104580008091E2008E7F8093E2008091E200806162
:104590008093E20042E060E080E00E94562180913A
:1045A000F00088608093F0000E941E1EFF91EF9142
:1045B000BF91AF919F918F917F916F915F914F913B
:1045C0003F912F910F900FBE0F901F9018958091E3
:1045D000E30087FD93E090931E02B9CF1F920F92E4
:1045E0000FB60F9211242F933F934F935F936F93C6
:1045F0007F938F939F93AF93BF93CF93DF93EF936B
:10460000FF93D091E900DF708091EC00C82FC1705A
:1046100080FDC0E81092E9008091F000877F8093D0
:10462000F00078940E9432231092E9008091F0000B
:1046300088608093F000CD2BCF70C093E900FF918C
:10464000EF91DF91CF91BF91AF919F918F917F912A
:104650006F915F914F913F912F910F900FBE0F90EF
:104660001F9018951F93CF93DF93CDB7DEB7AA970E
:104670000FB6F894DEBF0FBECDBF8FE192E0209160
:10468000F100FC012193CF01F2E087329F07B9F7D7
:104690000E947A1E8091E80083FF1EC180911F0254
:1046A000909120029A3008F017C1E92FF0E0E25A09
:1046B000FA4D0C94D924803899F0823809F00CC155
:1046C000809123028F70853008F006C18093E90045
:1046D0008091EB0085FB882780F91092E90006C0E5
:1046E00080911B0290911C02911182609091E800D0
:1046F000977F9093E8008093F1001092F1008091F1
:10470000E8008E77E5C0882309F4D3C0823009F031
:10471000E3C0809121028111D6C0809123028F7065
:104720002FEF280F243008F0D7C08093E9002091A4
:10473000EB0020FFC8C0933031F48091EB00806221
:104740008093EB00C0C09091EB0090619093EB00E0
:1047500021E030E001C0220F8A95EAF72093EA00B9
:104760001092EA008091EB008860EACF8111B4C01A
:10477000109121021F778091E3008078812B809334
:10478000E3008091E800877F8093E8000E948A21FF
:104790008091E80080FFFCCF8091E30080688093E7
:1047A000E30082E0111183E080931E0295C08058DF
:1047B000823008F091C080912102909122028C3DBC
:1047C00023E09207A1F583E08A838AE289834FB7C9
:1047D000F894DE01139620E03EE051E2E32FF0E092
:1047E00050935700E49120FF03C0E295EF703F5FC4
:1047F000EF708E2F90E0EA30C0F0C7968D939D93B6
:104800002F5F243159F74FBF8091E800877F809355
:10481000E8006AE270E0CE0101960E949D2080913E
:10482000E8008B778093E80057C0C096E7CF60918F
:10483000230270912402AE014F5F5F4F0E94DF1F81
:10484000BC01892B09F448C09091E800977F9093B0
:10485000E80089819A810E94F920E1CF8038E1F552
:104860008091E800877F8093E80080911A0280930E
:10487000F10045CF811130C090912102923060F556
:104880008091E800877F8093E80090931A020E944D
:104890008A2180911A02882311F084E005C080915A
:1048A000E30087FDFACF81E080931E020E946B1E19
:1048B00013C080912102813079F481E0933009F0B6
:1048C00080E080931C021092E9008091E800877FCD
:1048D0008093E8000E948A218091E80083FF0AC04B
:1048E0008091E800877F8093E8008091EB008062F0
:1048F0008093EB00AA960FB6F894DEBF0FBECDBF33
:10490000DF91CF911F910895CF9380911E0288234C
:10491000A1F0C091E900CF709091EC00892F8170D7
:1049200090FD80E8C82B1092E9008091E80083FD9B
:104930000E943223CF70C093E900CF9108950024E4
:1049400080FD060E660F11F08695D1F7802D089533
:104950000024552704C0080E591F880F991F00977F
:1049600029F076956795B8F37105B9F7802D952FE5
:104970000895991B79E004C0991F961708F0961BBB
:10498000881F7A95C9F78095089597FB072E16F42E
:10499000009407D077FD09D00E94DF2407FC05D0E2
:1049A0003EF4909581959F4F0895709561957F4F46
:1049B0000895EE0FFF1F0590F491E02D0994AA1BB6
:1049C000BB1B51E107C0AA1FBB1FA617B70710F0FA
:1049D000A61BB70B881F991F5A95A9F7809590952C
:1049E000BC01CD010895FB01DC0104C08D91019053
:1049F000801921F441505040C8F7881B990B089545
:104A0000F999FECF92BD81BDF89A992780B5089596
:104A1000A8E1B0E042E050E00C943425262FF9994B
:104A2000FECF92BD81BDF89A019700B4021639F00D
:104A30001FBA20BD0FB6F894FA9AF99A0FBE0895DE
:104A40000396272F0E940F250E940E25252F0E94D6
:104A50000F25242F0C940F250196272F0E940F2538
:104A60000C940E25DC01CB01FC01F999FECF06C0A8
:104A7000F2BDE1BDF89A319600B40D92415050401C
:104A8000B8F70895F894FFCF450945099D099D0998
:104A90007209EF0972097209FA09860A950A950ADC
:104AA000570B570B600B600B620B600B600B600BBE
:104AB000570B570B670B600B600B670B5B23832354
:104AC0006C2483236C24B623D7236C242E243A240D
:104AD000B1012808643C0710CB1DF01DCF1DCE1D71
:104AE0001D1E0101020304050607086762909192EA
:104AF0009394959630663334353637404922E8062C
:0A4B00009F067D0622063B065406C0
:00000001FF
